:100000000C944A000C9461000C9461000C94610003
:100010000C9461000C9461000C9461000C946100DC
:100020000C9461000C9461000C9461000C946100CC
:100030000C9461000C9461000C9461000C946100BC
:100040000C9461000C9461000C9461000C946100AC
:100050000C9461000C9461000C9461000C9461009C
:100060000C9461000C9461000C9461000C9461008C
:100070000C9461000C9461000C9461000C9461007C
:100080000C9461000C9461000C9461000C9461006C
:100090000C94610011241FBECFEFD0E1DEBFCDBFB5
:1000A00011E0A0E0B1E0E8E0F3E000E00BBF02C047
:1000B00007900D92A030B107D9F70E9400010C946F
:1000C00082010C9400009B01AC0164E0220F331FFD
:1000D000441F551F6A95D1F760E072E18AE790E00E
:1000E0000E946001C901DA010197A109B109292F14
:1000F0003A2F4B2F55272093C5008093C400E1EC85
:10010000F0E08081886080838081806180830895B1
:100110009B01AC01E4E0220F331F441F551FEA95F9
:10012000D1F760E072E18AE790E00E946001C901C6
:10013000DA010197A109B1098093CC00892F9A2F88
:10014000AB2FBB278093CD00E9ECF0E08081886085
:1001500080838081806180830895982F8091C00082
:1001600085FFFCCF9093C60008958091C00087FF63
:10017000FCCF8091C60008958091C80087FFFCCF16
:100180008091CE000895FC0107C08091C00085FFDA
:10019000FCCF9093C600319690819923B1F70895D2
:1001A0006B9A6C9A8AEA809390008BE1809391001D
:1001B000109299008DEA8093980010929B00809392
:1001C0009A0086EF99E090939700809396000895A7
:1001D000259A269A8AEA809380008BE18093810099
:1001E0001092890080E48093880010928B008093A5
:1001F0008A0086EF99E090938700809386000895A7
:100200008FEF81B960E875E280E090E00E946300C2
:100210000E94E8000E94D0006DEA70E08091C0006A
:1002200087FFFCCF2091C6008091C00087FFFCCFE4
:100230009091C6008091C00087FFFCCF4091C6001E
:100240008091C00087FFFCCF3091C60092B9222375
:1002500049F4892F90E0805C9F4F909389008093B0
:10026000880011C0223029F4FB01E91BF109CF01FC
:1002700006C0213041F4892F90E083559F4F909321
:10028000990080939800442349F4832F90E0805C88
:100290009F4F90938B0080938A00C0CF423021F40F
:1002A000CB01831B910907C0413009F0B7CF832FE1
:1002B00090E083559F4F90939B0080939A00AECF20
:1002C000A1E21A2EAA1BBB1BFD010DC0AA1FBB1F5A
:1002D000EE1FFF1FA217B307E407F50720F0A21BCC
:1002E000B30BE40BF50B661F771F881F991F1A9439
:1002F00069F760957095809590959B01AC01BD0163
:08030000CF010895F894FFCF2E
:00000001FF
